{
  "contractName": "VerifySchnorr",
  "abi": [
    {
      "inputs": [
        {
          "internalType": "uint256",
          "name": "prime",
          "type": "uint256"
        },
        {
          "internalType": "uint256",
          "name": "generator",
          "type": "uint256"
        }
      ],
      "stateMutability": "nonpayable",
      "type": "constructor"
    },
    {
      "inputs": [
        {
          "internalType": "bytes32",
          "name": "x",
          "type": "bytes32"
        },
        {
          "internalType": "bytes32",
          "name": "y",
          "type": "bytes32"
        }
      ],
      "name": "hash",
      "outputs": [
        {
          "internalType": "bytes32",
          "name": "",
          "type": "bytes32"
        }
      ],
      "stateMutability": "pure",
      "type": "function"
    },
    {
      "inputs": [
        {
          "internalType": "uint256",
          "name": "m",
          "type": "uint256"
        },
        {
          "internalType": "uint256",
          "name": "r",
          "type": "uint256"
        },
        {
          "internalType": "uint256",
          "name": "s",
          "type": "uint256"
        },
        {
          "internalType": "uint256",
          "name": "pk",
          "type": "uint256"
        }
      ],
      "name": "Verify",
      "outputs": [
        {
          "internalType": "bool",
          "name": "",
          "type": "bool"
        }
      ],
      "stateMutability": "view",
      "type": "function"
    },
    {
      "inputs": [],
      "name": "getFeildPrimeBytes",
      "outputs": [
        {
          "internalType": "bytes",
          "name": "",
          "type": "bytes"
        }
      ],
      "stateMutability": "view",
      "type": "function"
    },
    {
      "inputs": [],
      "name": "getGeneratorBytes",
      "outputs": [
        {
          "internalType": "bytes",
          "name": "",
          "type": "bytes"
        }
      ],
      "stateMutability": "view",
      "type": "function"
    }
  ],
  "bytecode": "0x60806040523480156200001157600080fd5b506040516200287f3803806200287f833981810160405281019062000037919062000624565b6200004f8260006200010a60201b6200067c1760201c565b6000808201518160000190805190602001906200006e9291906200053a565b5060208201518160010160006101000a81548160ff02191690831515021790555060408201518160020155905050620000b48160006200010a60201b6200067c1760201c565b60036000820151816000019080519060200190620000d49291906200053a565b5060208201518160010160006101000a81548160ff021916908315150217905550604082015181600201559050505050620007bc565b62000114620005cb565b62000149836040516020016200012b919062000680565b6040516020818303038152906040528360006200015160201b60201c565b905092915050565b6200015b620005cb565b60208401845160005960006020840614600181146200018f5760208406602003602081840101935080850183525062000199565b6020820192508382525b508282848660046101c2fa506020815101810160405280515b6000602082141415620001ea57600060208301511460018114620001d75750620001ea565b60208301925050602081039050620001b2565b8082528186528760208701525050505050600082146200020b578162000221565b6200022081600001516200023160201b60201c565b5b8160400181815250509392505050565b600062000244826200028360201b60201c565b156200025457600090506200027e565b6000602083015190506200026e81620002e060201b60201c565b9150600860208451030282019150505b919050565b600080600060208401905060005b8451811015620002d357815192506000831115620002b65760009350505050620002db565b602082019150602081620002cb91906200069d565b905062000291565b506001925050505b919050565b6000808214600181146200052f578260018403935060028404841793506004840484179350601084048417935061010084048417935062010000840484179350640100000000840484179350680100000000000000008404841793507001000000000000000000000000000000008404841793506001840193506040517ff8f9cbfae6cc78fbefe7cdc3a1793dfcf4f0e8bbd8cec470b6a28a7a5a3e1efd81527ff5ecf1b3e9debc68e1d9cfabc5997135bfb7a7a3938b7b606b5b4b3f2f1f0ffe60208201527ff6e4ed9ff2d6b458eadcdf97bd91692de2d4da8fd2d0ac50c6ae9a827252361660408201527fc8c0b887b0a8a4489c948c7f847c6125746c645c544c444038302820181008ff60608201527ff7cae577eec2a03cf3bad76fb589591debb2dd67e0aa9834bea6925f6a4a2e0e60808201527fe39ed557db96902cd38ed14fad815115c786af479b7e8324736353433727170760a08201527fc976c13bb96e881cb166a933a55e490d9d56952b8d4e801485467d236242260660c08201527f753a6d1b65325d0c552a4d1345224105391a310b29122104190a11030902010060e082015261010081016040527e818283848586878898a8b8c8d8e8f929395969799a9b9d9e9faaeb6bedeeff7f01000000000000000000000000000000000000000000000000000000000000008082880204818160ff038501510496507f8000000000000000000000000000000000000000000000000000000000000000851161010002870196506000600186038616141562000524576001870196505b505050505062000534565b600091505b50919050565b828054620005489062000704565b90600052602060002090601f0160209004810192826200056c5760008555620005b8565b82601f106200058757805160ff1916838001178555620005b8565b82800160010185558215620005b8579182015b82811115620005b75782518255916020019190600101906200059a565b5b509050620005c79190620005ee565b5090565b604051806060016040528060608152602001600015158152602001600081525090565b5b8082111562000609576000816000905550600101620005ef565b5090565b6000815190506200061e81620007a2565b92915050565b600080604083850312156200063857600080fd5b600062000648858286016200060d565b92505060206200065b858286016200060d565b9150509250929050565b6200067a6200067482620006fa565b6200073a565b82525050565b60006200068e828462000665565b60208201915081905092915050565b6000620006aa82620006fa565b9150620006b783620006fa565b9250827fffffffffffffffffffffffffffffffffffffffffffffffffffffffffffffffff03821115620006ef57620006ee62000744565b5b828201905092915050565b6000819050919050565b600060028204905060018216806200071d57607f821691505b6020821081141562000734576200073362000773565b5b50919050565b6000819050919050565b7f4e487b7100000000000000000000000000000000000000000000000000000000600052601160045260246000fd5b7f4e487b7100000000000000000000000000000000000000000000000000000000600052602260045260246000fd5b620007ad81620006fa565b8114620007b957600080fd5b50565b6120b380620007cc6000396000f3fe608060405234801561001057600080fd5b506004361061004c5760003560e01c8063412f9cac14610051578063b1a4686c14610081578063c30918d11461009f578063e6760e93146100cf575b600080fd5b61006b60048036038101906100669190611b56565b6100ed565b6040516100789190611cbc565b60405180910390f35b610089610101565b6040516100969190611cd7565b60405180910390f35b6100b960048036038101906100b49190611b92565b610195565b6040516100c69190611ca1565b60405180910390f35b6100d76105e7565b6040516100e49190611cd7565b60405180910390f35b60006100f983836106b7565b905092915050565b606060008001805461011290611f51565b80601f016020809104026020016040519081016040528092919081815260200182805461013e90611f51565b801561018b5780601f106101605761010080835404028352916020019161018b565b820191906000526020600020905b81548152906001019060200180831161016e57829003601f168201915b5050505050905090565b6000806101c2856040516020016101ac9190611c86565b6040516020818303038152906040526000610767565b905060006101f0856040516020016101da9190611c86565b6040516020818303038152906040526000610767565b9050600061021e856040516020016102089190611c86565b6040516020818303038152906040526000610767565b905060006102328960001b8960001b6100ed565b9050600061024961024283610783565b6000610767565b905060006105786103e1600360405180606001604052908160008201805461027090611f51565b80601f016020809104026020016040519081016040528092919081815260200182805461029c90611f51565b80156102e95780601f106102be576101008083540402835291602001916102e9565b820191906000526020600020905b8154815290600101906020018083116102cc57829003601f168201915b505050505081526020016001820160009054906101000a900460ff1615151515815260200160028201548152505087600060405180606001604052908160008201805461033590611f51565b80601f016020809104026020016040519081016040528092919081815260200182805461036190611f51565b80156103ae5780601f10610383576101008083540402835291602001916103ae565b820191906000526020600020905b81548152906001019060200180831161039157829003601f168201915b505050505081526020016001820160009054906101000a900460ff161515151581526020016002820154815250506108d4565b6104af8685600060405180606001604052908160008201805461040390611f51565b80601f016020809104026020016040519081016040528092919081815260200182805461042f90611f51565b801561047c5780601f106104515761010080835404028352916020019161047c565b820191906000526020600020905b81548152906001019060200180831161045f57829003601f168201915b505050505081526020016001820160009054906101000a900460ff161515151581526020016002820154815250506108d4565b60006040518060600160405290816000820180546104cc90611f51565b80601f01602080910402602001604051908101604052809291908181526020018280546104f890611f51565b80156105455780601f1061051a57610100808354040283529160200191610545565b820191906000526020600020905b81548152906001019060200180831161052857829003601f168201915b505050505081526020016001820160009054906101000a900460ff161515151581526020016002820154815250506109d2565b90506000610588828860006109f6565b146105c8576040517f08c379a00000000000000000000000000000000000000000000000000000000081526004016105bf90611cf9565b60405180910390fd5b60006105d6828860006109f6565b149650505050505050949350505050565b6060600360000180546105f990611f51565b80601f016020809104026020016040519081016040528092919081815260200182805461062590611f51565b80156106725780601f1061064757610100808354040283529160200191610672565b820191906000526020600020905b81548152906001019060200180831161065557829003601f168201915b5050505050905090565b610684611b09565b6106af836040516020016106989190611c86565b604051602081830303815290604052836000610bd3565b905092915050565b60007f30644e72e131a029b85045b68181585d2833e84879b9709143e1f593f000000180838508818182098282848386858609090991507faed26d6a3f5e0ea662411ddfcde3527479de9cee7a56c656ff5f61df13a3940160005260005b605a81121561074e5760206000208060005284878683870808935084848509925084848685888788090909935050600181019050610715565b5082858308915082858488850808935050505092915050565b61076f611b09565b61077b83836000610bd3565b905092915050565b60606000602067ffffffffffffffff8111156107c8577f4e487b7100000000000000000000000000000000000000000000000000000000600052604160045260246000fd5b6040519080825280601f01601f1916602001820160405280156107fa5781602001600182028036833780820191505090505b50905060005b60208160ff1610156108ca57838160ff1660208110610848577f4e487b7100000000000000000000000000000000000000000000000000000000600052603260045260246000fd5b1a60f81b828260ff1681518110610888577f4e487b7100000000000000000000000000000000000000000000000000000000600052603260045260246000fd5b60200101907effffffffffffffffffffffffffffffffffffffffffffffffffffffffffffff1916908160001a90535080806108c290611f83565b915050610800565b5080915050919050565b6108dc611b09565b60001515836020015115151480156108fc57506000151582602001511515145b801561091257506109108260000151610ca1565b155b61091b57600080fd5b6000610934856000015185600001518560000151610cf8565b9050600061094182610ddd565b9050600081141561095d57610954610e1d565b925050506109cb565b85602001518015610973575061097285610e5f565b5b156109a85761099f60405180606001604052808481526020016001151581526020018381525085610e74565b925050506109cb565b604051806060016040528083815260200160001515815260200182815250925050505b9392505050565b6109da611b09565b6109ed6109e785856110a0565b83611145565b90509392505050565b600080600190508215610ac15784602001518015610a15575083602001515b15610a42577fffffffffffffffffffffffffffffffffffffffffffffffffffffffffffffffff9050610ac0565b6000151585602001511515148015610a6257506001151584602001511515145b15610a71576001915050610bcc565b6001151585602001511515148015610a9157506000151584602001511515145b15610abf577fffffffffffffffffffffffffffffffffffffffffffffffffffffffffffffffff915050610bcc565b5b5b836040015185604001511115610ada5780915050610bcc565b846040015184604001511115610b1e57807fffffffffffffffffffffffffffffffffffffffffffffffffffffffffffffffff610b169190611d9c565b915050610bcc565b6000806000806000896000015151905060208a510194506020895101935060005b81811015610bc05780860151935080850151925082841115610b6a5786975050505050505050610bcc565b83831115610bac57867fffffffffffffffffffffffffffffffffffffffffffffffffffffffffffffffff610b9e9190611d9c565b975050505050505050610bcc565b602081610bb99190611d46565b9050610b3f565b50600096505050505050505b9392505050565b610bdb611b09565b6020840184516000596000602084061460018114610c0d57602084066020036020818401019350808501835250610c17565b6020820192508382525b508282848660046101c2fa506020815101810160405280515b6000602082141415610c6457600060208301511460018114610c525750610c64565b60208301925050602081039050610c30565b808252818652876020870152505050505060008214610c835781610c91565b610c908160000151610ddd565b5b8160400181815250509392505050565b600080600060208401905060005b8451811015610ceb57815192506000831115610cd15760009350505050610cf3565b602082019150602081610ce49190611d46565b9050610caf565b506001925050505b919050565b606083518351835160405183815282602082015281604082015283606082018560208b0160046101c2fa84606001848184018660208c0160046101c2fa91508481019050838184018560208b0160046101c2fa91508160008114610d5b57610d5d565bfe5b5083810190508360608401828560056105465a03fa91508160008114610d8257610d84565bfe5b5083606084015b6000602083141415610dbc57600081511460018114610daa5750610dbc565b60208201915050602082039150610d8b565b60208103985081895285856060010160405250505050505050509392505050565b6000610de882610ca1565b15610df65760009050610e18565b600060208301519050610e0881611167565b9150600860208451030282019150505b919050565b610e25611b09565b6040518060600160405280604051806040016040528060208152602001600081525081526020016000151581526020016000815250905090565b60008151518251016002815106915050919050565b610e7c611b09565b60008360400151148015610e94575060008260400151145b15610ea857610ea1610e1d565b905061109a565b600083604001511415610ebd5781905061109a565b600082604001511415610ed25782905061109a565b6060600080610ee3868660006109f6565b9050856020015180610ef6575084602001515b156110255785602001518015610f0d575084602001515b15610f745760008112610f3e57610f318660000151866000015188604001516113be565b8093508194505050610f5e565b610f558560000151876000015187604001516113be565b80935081945050505b6001846020019015159081151581525050611020565b6001811415610fb057610f8f866000015186600001516114f5565b8093508194505050856020015184602001901515908115158152505061101f565b7fffffffffffffffffffffffffffffffffffffffffffffffffffffffffffffffff81141561100c57610fea856000015187600001516114f5565b809350819450505085602001511584602001901515908115158152505061101e565b611014610e1d565b935050505061109a565b5b5b611083565b60008112611051576110448660000151866000015188604001516113be565b8093508194505050611071565b6110688560000151876000015187604001516113be565b80935081945050505b60008460200190151590811515815250505b828460000181905250818460400181815250505050505b92915050565b6110a8611b09565b60006110b48484610e74565b905060006110d4826110c4611622565b6110cf856002611664565b6108d4565b90506110e085856116e0565b61112f5760006110f0868661170c565b9050600061111082611100611622565b61110b856002611664565b6108d4565b905061112661111f848361170c565b600261195f565b9450505061113d565b61113a81600261195f565b92505b505092915050565b61114d611b09565b61115f83611159611ac7565b846108d4565b905092915050565b6000808214600181146113b3578260018403935060028404841793506004840484179350601084048417935061010084048417935062010000840484179350640100000000840484179350680100000000000000008404841793507001000000000000000000000000000000008404841793506001840193506040517ff8f9cbfae6cc78fbefe7cdc3a1793dfcf4f0e8bbd8cec470b6a28a7a5a3e1efd81527ff5ecf1b3e9debc68e1d9cfabc5997135bfb7a7a3938b7b606b5b4b3f2f1f0ffe60208201527ff6e4ed9ff2d6b458eadcdf97bd91692de2d4da8fd2d0ac50c6ae9a827252361660408201527fc8c0b887b0a8a4489c948c7f847c6125746c645c544c444038302820181008ff60608201527ff7cae577eec2a03cf3bad76fb589591debb2dd67e0aa9834bea6925f6a4a2e0e60808201527fe39ed557db96902cd38ed14fad815115c786af479b7e8324736353433727170760a08201527fc976c13bb96e881cb166a933a55e490d9d56952b8d4e801485467d236242260660c08201527f753a6d1b65325d0c552a4d1345224105391a310b29122104190a11030902010060e082015261010081016040527e818283848586878898a8b8c8d8e8f929395969799a9b9d9e9faaeb6bedeeff7f01000000000000000000000000000000000000000000000000000000000000008082880204818160ff038501510496507f800000000000000000000000000000000000000000000000000000000000000085116101000287019650600060018603861614156113a9576001870196505b50505050506113b8565b600091505b50919050565b606060006060596000600160000388518901885189018a5160208601018b515b6000808214141561148b5783518c518e5103821160018114611423578782018452600188148288141660018114611418576000985061141d565b600198505b50611472565b8451888184010185528881038803831160018114611464576000821160008b111789851416600181146114595760009a5061145e565b60019a505b50611469565b600199505b50602086039550505b50602083039250602085039450506020810390506113de565b5060008514600181146114a157600182526114a8565b6020870196505b50859650846020028c510187526020875101870160405260208701516001816101008d061c146001821417156114df5760018b019a505b5050505050505080849250925050935093915050565b6060600060606000807fffffffffffffffffffffffffffffffffffffffffffffffffffffffffffffffff90505987518751808203828b01828b0184860160208101865b600080821414156115c95784518682116001811461157a578c8203855260018d1460008314166001811461156f5760009d50611574565b60019d505b506115b0565b85518d81840303865260018e148d8214168e8201841017600181146115a25760009e506115a7565b60019e505b50602087039650505b5060208403935060208603955050602081039050611538565b506020820191505b6000825114156115f2576020880197506020870396506020820191506115d1565b879a50868b52806040525050505050505050600061160f84610ddd565b9050838195509550505050509250929050565b61162a611b09565b6040518060600160405280604051806040016040528060208152602001600281525081526020016000151581526020016002815250905090565b61166c611b09565b6000604051806040016040528060208152602001600081525090506000836040860151029050600161010082061b6020600161010084040102835280602084015260208351018301604052506040518060600160405280838152602001600015158152602001828152509250505092915050565b6000806116ef848460016109f6565b905060008114611700576000611703565b60015b91505092915050565b611714611b09565b6000836040015114801561172c575060008260400151145b1561174057611739610e1d565b9050611959565b6060600080611751868660006109f6565b9150856020015180611764575084602001515b1561189d578560200151801561177b575084602001515b156118295760018214156117b95761179b866000015186600001516114f5565b80925081945050506001846020019015159081151581525050611824565b7fffffffffffffffffffffffffffffffffffffffffffffffffffffffffffffffff821415611811576117f3856000015187600001516114f5565b80925081945050506000846020019015159081151581525050611823565b611819610e1d565b9350505050611959565b5b611898565b60008212611855576118488660000151866000015188604001516113be565b8092508194505050611875565b61186c8560000151876000015187604001516113be565b80925081945050505b8560200151611885576000611888565b60015b8460200190151590811515815250505b611942565b60018214156118d6576118b8866000015186600001516114f5565b80925081945050506000846020019015159081151581525050611941565b7fffffffffffffffffffffffffffffffffffffffffffffffffffffffffffffffff82141561192e57611910856000015187600001516114f5565b80925081945050506001846020019015159081151581525050611940565b611936610e1d565b9350505050611959565b5b5b828460000181905250808460400181815250505050505b92915050565b611967611b09565b60008351519050836040015183106119b6576040518060600160405280604051806040016040528060208152602001600081525081526020016000151581526020016000815250915050611ac1565b8284604001516119c69190611eb3565b8460400181815250506101008314610100841117156119f75760206101008404028103905080845152610100830692505b83516000600885061460018114611a69576000808661010003858501865b60008082141415611a5f576020811460018114611a385760208303519550611a3d565b600095505b5081518a1c935084831b94508484178252602082039150602081039050611a15565b5050505050611a97565b6008850486518051602081018383018482038282848760046101c2fa6000601f840153848652505050505050505b5060208101600081511460018114611aae57611ab9565b602083510382528187525b505050839150505b92915050565b611acf611b09565b6040518060600160405280604051806040016040528060208152602001600181525081526020016000151581526020016001815250905090565b604051806060016040528060608152602001600015158152602001600081525090565b600081359050611b3b8161204f565b92915050565b600081359050611b5081612066565b92915050565b60008060408385031215611b6957600080fd5b6000611b7785828601611b2c565b9250506020611b8885828601611b2c565b9150509250929050565b60008060008060808587031215611ba857600080fd5b6000611bb687828801611b41565b9450506020611bc787828801611b41565b9350506040611bd887828801611b41565b9250506060611be987828801611b41565b91505092959194509250565b611bfe81611ee7565b82525050565b611c0d81611ef3565b82525050565b6000611c1e82611d19565b611c288185611d24565b9350611c38818560208601611f1e565b611c4181612015565b840191505092915050565b6000611c59600d83611d35565b9150611c6482612026565b602082019050919050565b611c80611c7b82611f07565b611fad565b82525050565b6000611c928284611c6f565b60208201915081905092915050565b6000602082019050611cb66000830184611bf5565b92915050565b6000602082019050611cd16000830184611c04565b92915050565b60006020820190508181036000830152611cf18184611c13565b905092915050565b60006020820190508181036000830152611d1281611c4c565b9050919050565b600081519050919050565b600082825260208201905092915050565b600082825260208201905092915050565b6000611d5182611f07565b9150611d5c83611f07565b9250827fffffffffffffffffffffffffffffffffffffffffffffffffffffffffffffffff03821115611d9157611d90611fb7565b5b828201905092915050565b6000611da782611efd565b9150611db283611efd565b9250827f7fffffffffffffffffffffffffffffffffffffffffffffffffffffffffffffff0482116000841360008413161615611df157611df0611fb7565b5b817f80000000000000000000000000000000000000000000000000000000000000000583126000841260008413161615611e2e57611e2d611fb7565b5b827f80000000000000000000000000000000000000000000000000000000000000000582126000841360008412161615611e6b57611e6a611fb7565b5b827f7fffffffffffffffffffffffffffffffffffffffffffffffffffffffffffffff0582126000841260008412161615611ea857611ea7611fb7565b5b828202905092915050565b6000611ebe82611f07565b9150611ec983611f07565b925082821015611edc57611edb611fb7565b5b828203905092915050565b60008115159050919050565b6000819050919050565b6000819050919050565b6000819050919050565b600060ff82169050919050565b60005b83811015611f3c578082015181840152602081019050611f21565b83811115611f4b576000848401525b50505050565b60006002820490506001821680611f6957607f821691505b60208210811415611f7d57611f7c611fe6565b5b50919050565b6000611f8e82611f11565b915060ff821415611fa257611fa1611fb7565b5b600182019050919050565b6000819050919050565b7f4e487b7100000000000000000000000000000000000000000000000000000000600052601160045260246000fd5b7f4e487b7100000000000000000000000000000000000000000000000000000000600052602260045260246000fd5b6000601f19601f8301169050919050565b7f766572696679206661696c656400000000000000000000000000000000000000600082015250565b61205881611ef3565b811461206357600080fd5b50565b61206f81611f07565b811461207a57600080fd5b5056fea26469706673582212201ad98dc1fa024d64bd2db427598046e5a022ae379e78379e24b5e9095086cab864736f6c63430008020033",
  "immutableReferences": {},
  "source": "// SPDX-License-Identifier: LGPL-3.0+\npragma solidity ^0.8.2;\n\nimport \"./BigNumbers.sol\";\nimport \"./MiMC7.sol\";\n\n// ALT_BN128\n// prime     : 21888242871839275222246405745257275088548364400416034343698204186575808495617\n// generator : 10398164868948269691505217409040279103932722394566360325611713252123766059173\n\ncontract VerifySchnorr {\n    // save as hex bytes in BigNumber.val\n    BigNumber p; \n    BigNumber g;\n\n    constructor(uint256 prime, uint256 generator) {\n        p = BigNumbers.init(prime, false);\n        g = BigNumbers.init(generator, false);\n\t}\n    \n    function hash(bytes32 x, bytes32 y) public pure returns(bytes32) {\n        return MiMC7._hash(x, y);\n    }\n\n    function bytes32TOBytes(bytes32 data) internal pure returns (bytes memory){\n        bytes memory ret = new bytes(32);\n        for (uint8 i=0; i<32; i++){\n            ret[i] = data[i];\n        }\n\n        return ret;\n    }\n    \n\n    function Verify(uint256 m, uint256 r, uint256 s, uint256 pk) public view returns (bool){\n        BigNumber memory _r = BigNumbers.init(abi.encodePacked(r), false);\n        BigNumber memory _s = BigNumbers.init(abi.encodePacked(s), false);\n        BigNumber memory _pk = BigNumbers.init(abi.encodePacked(pk), false);\n\n        // e = hash(m || r)\n        bytes32 e = hash(bytes32(m), bytes32(r));\n        BigNumber memory _e = BigNumbers.init(bytes32TOBytes(e), false);\n\n        // r` =  (g^s * pk^e) mod p\n        BigNumber memory calc_r = BigNumbers.modmul (\n            BigNumbers.modexp(g, _s, p),\n            BigNumbers.modexp(_pk, _e, p),\n            p\n        );\n\n        // check r` == r\n        require(BigNumbers.cmp(calc_r, _r, false) == 0, \"verify failed\");\n        return BigNumbers.cmp(calc_r, _r, false) == 0;\n    }\n\n    // to test web3.js\n    function getFeildPrimeBytes() public view returns (bytes memory) {\n        return p.val;\n    }\n\n    function getGeneratorBytes() public view returns (bytes memory) {\n        return g.val;\n    }\n}",
  "sourcePath": "/Users/kim/workspace/design-pattern-study/contract/contracts/VerifySchnorr.sol",
  "compiler": {
    "name": "solc",
    "version": "0.8.2+commit.661d1103.Emscripten.clang"
  },
  "schemaVersion": "3.4.11",
  "updatedAt": "2023-05-27T07:40:57.362Z",
  "devdoc": {
    "kind": "dev",
    "methods": {},
    "version": 1
  },
  "userdoc": {
    "kind": "user",
    "methods": {},
    "version": 1
  }
}